:020000040800F2
:10000000D005002001010008531500080514000860
:100010005115000885010008531900080000000070
:10002000000000000000000000000000771500083C
:10003000B5010008000000007515000879150008DA
:100040001B0100081B0100081B0100081B01000820
:100050001B0100081B0100081B0100081B01000810
:100060001B0100081B0100081B0100081B01000800
:100070001B0100081B0100081B0100081B010008F0
:100080001B0100081B0100081B0100081B010008E0
:100090001B0100081B0100081B0100081B010008D0
:1000A0001B0100081B0100081B0100081B010008C0
:1000B000291600081B0100081B0100081B0100088D
:1000C0001B0100081B0100081B0100081B010008A0
:1000D0001B0100081B0100081B0100081B01000890
:1000E0001B0100081B0100081B010008DFF80CD0F1
:1000F00000F036F800480047411B0008D0050020FA
:100100000648804706480047FEE7FEE7FEE7FEE7B1
:10011000FEE7FEE7FEE7FEE7FEE7FEE7E115000883
:10012000ED000008421C10F8011B0029FBD1801AC9
:10013000704730B50B46014600202022012409E01B
:1001400021FA02F59D4205D303FA02F5491B04FA90
:1001500002F52844151EA2F10102F1DC30BD0000B9
:10016000064C074D06E0E06840F0010394E8070004
:1001700098471034AC42F6D3FFF7BCFF301E00089E
:10018000501E0008FEE7000010B5044601221102CF
:10019000064800F06DF92046FFF7C4FF214682B201
:1001A000BDE810400A23024801F0C6B8000801402B
:1001B0008C0000207047000010B5094C012202217C
:1001C000204600F055F901220421204600F050F9A4
:1001D0000122BDE810409102024800F049B9000038
:1001E00000080140000C014010B5094C01221146E5
:1001F000204600F03DF901220821204600F038F9A0
:100200000122BDE810405102024800F031B900005F
:1002100000080140000C014010B500F00FF8064C3A
:1002200001220221204600F023F920460122BDE8E8
:100230001040082100F01CB90008014010B5114C15
:1002400000220121204600F013F90022022120465D
:1002500000F00EF900220421204600F009F90022E6
:100260000821204600F004F96115074C00222046C1
:1002700000F0FEF8002221152046BDE8104000F0F5
:10028000F7B8000000080140000C01400248016876
:100290000F20884370470000080C014031B500F082
:1002A000EDF8044600F0EAF80099001B8842F9D303
:1002B00038BD00002DE9F84FDFF890A100220AF1C7
:1002C000040B144601274FF00F090BF1040E00BF79
:1002D0000B6807FA04F52B40AB4274D1DFF870C10C
:1002E0004E68A6EB0C0866452BD00DDC032E34D0EF
:1002F00005DC36B3012E19D0022E2FD11BE0112EB2
:1003000016D0122E2AD119E0B8F5881F19D006DCB4
:10031000B8F5803F15D0B8F5801F1FD111E0B8F5B2
:10032000001F0ED0B8F5041F18D10AE0CA6815E006
:10033000CA68121D12E0CA6808320FE0CA680C329F
:100340000CE08A682AB1012A4FF0080203D0456107
:1003500004E0042202E0056100E00022FF2B01D846
:10036000064601E000F104064FEA840501D9A5F133
:100370002005D6F800C009FA05F82CEA080C02FAA4
:1003800005F54CEA050CC6F800C04D68ED0057D5E0
:10039000304DAE6946F00106AE61AD6924F003064A
:1003A00005F0010500952C4D06EB050CDCF8085016
:1003B000A6074FEA167809FA08F6B543274EB04269
:1003C00002D1002610E03BE0254EB04201D10126CB
:1003D0000AE0244EB04201D1022605E0224EB0428E
:1003E00001D1032600E0042606FA08F62E43CCF8D5
:1003F00008604D68DAF80060ED03554601D51E43EC
:1004000000E09E432E604D68DBF80060AD035D4662
:1004100001D51E4300E09E432E604D68DEF800606B
:10042000ED02754601D51E4300E09E432E604D68E7
:10043000AD020E4D2E6801D51E4300E09E432E6096
:10044000641C102CFFF444AFBDE8F88F0004014099
:10045000000011100010024000000140000801409F
:10046000000C014000100140001401400C04014048
:100470000AB1016170470904FBE700000148006808
:10048000704700000C00002070B5040004D094F800
:100490003500002510B106E0012070BD84F834500D
:1004A000204600F061F8242084F8350020680168B7
:1004B00021F00101016000F0EDF9014628482268B1
:1004C000B1FBF0F05060274A6368934206D94FF4BD
:1004D000967358434FF47A73B0FBF3F02368401CD3
:1004E00018626068904208D84000B1FBF0F0C0F399
:1004F0000B01042916D2042014E0A26852B100EBCB
:10050000C00202EB0010B1FBF0F040F440400105E6
:1005100007D007E000EB4000B1FBF0F040F40040F2
:10052000F5E701202168C861D4E907010843216883
:100530000860D4E90310084321688860D4E9050104
:1005400008432168C8602068016841F0010101602A
:10055000A563202084F8350084F83650002070BD53
:1005600040420F00A086010000B500680C4985B02C
:10057000884212D1C02000901220019003200390E5
:1005800069460848FFF796FE0748C16941F4001123
:10059000C161C06900F40010049005B000BD000006
:1005A00000540040000C0140001002400248016865
:1005B000491C0160704700000C000020074810B57E
:1005C000016841F010010160032000F087F800206D
:1005D00000F006F800F016F8002010BD00200240E0
:1005E00010B5044600F050F94FF47A71B0FBF1F009
:1005F00000F090FC00222146501E00F04FF8002031
:1006000010BD00001D4808B5816941F001018161FC
:10061000806900F001000090032000F05FF80022E4
:1006200011466FF00B0000F039F8002211466FF010
:100630000A0000F033F8002211466FF0090000F0C4
:100640002DF800221146501F00F028F80022114614
:10065000101F00F023F800221146901E00F01EF833
:1006600000221146501E00F019F80548416821F09B
:10067000E06141F00071416008BD000000100240DF
:100680000000014000F01F0201219140400980005C
:1006900000F1E020C0F8001170470000F0B40E4BEC
:1006A0001B680C46C3F30223C3F10705042D00D9D0
:1006B0000425191D072901D2002300E0DB1E0126B5
:1006C00006FA05F1491E214099409E40761E1640CB
:1006D0003143F0BC00F03EBF0CED00E0064900F0F5
:1006E000070208684FF6FF03184040EA0220034A59
:1006F00010430860704700000CED00E00000FA05B0
:100700002DE9F047DFF8708105460E46D8F8000065
:1007100000F00700B0420CD2D8F8001021F0070119
:100720003143C8F80010D8F8000000F00700B042CC
:1007300077D12878514C800705D56068A96820F0EA
:10074000F000084360602878C00759D0696801202C
:1007500001290DD0022929D05FF0020393FAA3F2F8
:10076000B2FA82F242F02002520904D0226803E079
:100770004FF40033F2E7626A93FAA3F3B3FA83F318
:1007800003F01F03984002424BD0606820F0030042
:1007900008436060FFF772FE6968074641F28830DF
:1007A00001290DD00229814617D025E04FF00073B2
:1007B000D4E700BFFFF762FEC11B494501D918E02D
:1007C00081466068C0F381000128F3D118E000BFC2
:1007D000FFF754FEC11B49450BD86068C0F3810088
:1007E0000228F5D10CE000BFFFF748FEC11B4945C8
:1007F00002D90320BDE8F087606810F00C0FF3D138
:10080000D8F80010404601F00701B1420BD9016849
:1008100021F0070131430160006800F00700B04299
:1008200001D00120E6E72878400705D56068E9682F
:1008300020F4E060084360602878000706D560680F
:10084000296920F4605040EAC100606000F052F86D
:100850006168F02292FAA2F201F0F001B2FA82F29B
:10086000D140074A515CC840064908600020FFF7A4
:10087000B7FE0020BEE7000000200240001002404A
:10088000181E000810000020014800687047000092
:100890001000002008480949006849684FF4E062E8
:1008A00092FAA2F201F4E061B2FA82F2D140044A73
:1008B000515CC8407047000010000020001002404A
:1008C000281E000808480949006849684FF460522A
:1008D00092FAA2F201F46051B2FA82F2D140044AD3
:1008E000515CC8407047000010000020001002401A
:1008F000281E000810B519A385B00FCB8DE80F0096
:100900001AA01B4B006804905A681A4802F00C01A8
:1009100004291DD008291BD14FF4701494FAA4F4B3
:1009200002F47011B4FA84F4E140D2031DF801100E
:1009300010D55A684FF4003393FAA3F302F400324F
:10094000B3FA83F3DA4004AB9A5CB0FBF2F04843AD
:1009500005B010BD08484843FAE70000020304054B
:10096000060708090A0B0C0D0E0F101001020000FB
:100970000010024000127A0000093D002DE9F84FF6
:1009800004460078F74DC0074FF0010625D068688F
:100990007704C0F38100012807D06868C0F38100A4
:1009A00002281BD16868C00318D597FAA7F0B0FADF
:1009B00080F040F02000400901D0286800E0686A1B
:1009C00097FAA7F1B1FA81F101F01F0106FA01F1DE
:1009D00008425ED0606800287CD05AE06068B0F5BC
:1009E000803F0BD010B1B0F5A02F11D0286820F4B3
:1009F00080302860286820F4802002E0286840F4D5
:100A000080302860606828B3FFF738FD80460BE02F
:100A1000286840F480202860F0E700BFFFF72EFD33
:100A2000A0EB0800642871D897FAA7F0B0FA80F01C
:100A300040F02000400901D0286800E0686A97FA79
:100A4000A7F1B1FA81F101F01F0106FA01F10842A4
:100A5000E4D01EE0FFF712FD804605E0FFF70EFD33
:100A6000A0EB08006428DED897FAA7F0B0FA80F06F
:100A700040F02000400901D0286800E0686A97FA39
:100A8000A7F1B1FA81F101F01F0106FA01F1084264
:100A9000E4D12078DFF8D08280074FF000094FF0D2
:100AA00002075BD568684FF0F80B10F00C0F07D009
:100AB0006868C0F3810002281CD16868C00319D49B
:100AC00097FAA7F0B0FA80F040F02000400902D079
:100AD000286801E08BE0686A97FAA7F1B1FA81F122
:100AE00001F01F0106FA01F108422CD0206901280B
:100AF0007DD128E0206990B396FAA6F0B0FA80F094
:100B000048F82060FFF7BAFC824607E011E100BF19
:100B1000FFF7B4FCA0EB0A00022884D897FAA7F0EC
:100B2000B0FA80F040F02000400901D0286800E0D1
:100B3000686A97FAA7F1B1FA81F101F01F0106FA8C
:100B400001F10842E4D028689BFAABF26169B2FA7D
:100B500082F220F0F80091400843286025E0FFE78A
:100B600096FAA6F1B1FA81F148F82190FFF786FCD8
:100B7000824605E0FFF782FCA0EB0A000228CCD8F1
:100B800097FAA7F0B0FA80F040F02000400901D0B9
:100B9000286800E0686A97FAA7F1B1FA81F101F0DC
:100BA0001F0106FA01F10842E4D1207800076ED552
:100BB000A069B8B396FAA6F0B0FA80F008EB80000E
:100BC000C0F88064FFF75AFC824605E0FFF756FC48
:100BD000A0EB0A000228A0D897FAA7F0B0FA80F09C
:100BE00040F06000B6EB501F02D128680CE062E1D3
:100BF00097FAA7F0B0FA80F040F06000B7EB501F12
:100C000001D1286A00E0686A97FAA7F1B1FA81F188
:100C100001F01F0106FA01F21042D7D00120FFF7C0
:100C20003DFB34E0FFE796FAA6F1B1FA81F108EB5B
:100C30008101C1F88094FFF721FC824606E000BFE5
:100C4000FFF71CFCA0EB0A00022872D897FAA7F065
:100C5000B0FA80F040F06000B6EB501F01D1286878
:100C60000BE097FAA7F0B0FA80F040F06000B7EB25
:100C7000501F01D1286A00E0686A97FAA7F1B1FA1B
:100C800081F101F01F0106FA01F21042D8D120785B
:100C9000400765D5E86940F08050E861E869DFF811
:100CA000CCB000F080500090DBF8001041F480716F
:100CB000CBF80010FFF7E2FB824605E0FFF7DEFB12
:100CC000A0EB0A00642834D8DBF80000C005F5D595
:100CD000E06801280AD008B1052813D0286A20F05E
:100CE00001002862286A20F0040002E0286A40F02F
:100CF00001002862E06841F2883B90B3FFF7BEFB39
:100D000082460BE0286A40F004002862EEE700BF4C
:100D1000FFF7B4FBA0EB0A0159450AD897FAA7F0F0
:100D2000B0FA80F040F04000B6EB501F02D12868C6
:100D30000CE0A3E097FAA7F0B0FA80F040F0400092
:100D4000B7EB501F01D1286A00E0686A97FAA7F153
:100D5000B1FA81F101F01F0206FA02F10842D7D080
:100D600031E005E000100240000042420070004007
:100D7000FFF784FB824605E0FFF780FBA0EB0A014A
:100D800059457BD897FAA7F0B0FA80F040F04000C0
:100D9000B6EB501F01D128680BE097FAA7F0B0FA24
:100DA00080F040F04000B7EB501F01D1286A00E00E
:100DB000686A97FAA7F1B1FA81F101F01F0206FA09
:100DC00002F10842D8D1E06980B36968C1F38101BA
:100DD000022970D04FF080714F000228484609D098
:100DE00091FAA1F1B1FA81F148F82100FFF746FB31
:100DF000044669E08A4691FAA1F1B1FA81F1C1464F
:100E000048F82100FFF73AFB804605E0FFF736FB84
:100E1000A0EB0800022854D897FAA7F0B0FA80F0A7
:100E200040F02000400902D0286801E061E0686AD3
:100E300097FAA7F1B1FA81F101F01F0106FA01F169
:100E40000842E3D1206AB0F5803F05D16868A16807
:100E500020F4003008436860D4E908010843696859
:100E600021F47411084368609AFAAAF0B0FA80F08D
:100E700049F82060FFF702FB044606E021E000BFCE
:100E8000FFF7FCFA001B02281BD897FAA7F0B0FA6C
:100E900080F040F02000400901D0286800E0686A36
:100EA00097FAA7F1B1FA81F101F01F0106FA01F1F9
:100EB0000842E5D01DE01EE0FFF7E0FA001B022823
:100EC00002D90320BDE8F88F97FAA7F0B0FA80F0B6
:100ED00040F02000400901D0286800E0686A97FAD5
:100EE000A7F1B1FA81F101F01F0106FA01F1084200
:100EF000E2D10020E6E70120E4E74FF0E0210428FA
:100F0000086903D020F004000861704740F0040035
:100F1000FAE7704710B5401EB0F1807F01D3012081
:100F200010BD4FF0E02460610F21601700F012FB4C
:100F30000020A06107202061002010BD10B5FFF740
:100F4000E8FF10BD7047704730B590F83820012A8F
:100F500020D0012280F83820022380F8393003683D
:100F60005C6824F070045C6003685C680D682C4366
:100F70005C6003689C6824F080049C6003689C6843
:100F800049680C439C6080F83920002180F83810B3
:100F9000084630BD022030BD10B5040003D094F8DF
:100FA000390010B107E0012010BD002084F838009E
:100FB000204600F00DF8022084F83900211D206839
:100FC00000F05EFB012084F83900002010BD000015
:100FD00008B50068B0F1804F12D10A48C16941F0EC
:100FE0000101C161C069002200F0010000901146BA
:100FF0001C20FFF753FBBDE808401C20FFF742BB55
:1010000008BD0000001002400168CA6842F00102F9
:10101000CA600068016841F001010160002070476A
:1010200070B5044690F83800012817D0012584F8DF
:101030003850022084F839002068826822F0770254
:1010400022F47F4282600868502837D00DDC2028C7
:1010500059D005DC88B3102841D151E0022070BD81
:10106000302853D040283AD13FE060282ED0702855
:101070000BD0B0F5805F03D0B0F5005F2FD110E04A
:101080002068816821F0070115E0CB68D1E90121D2
:10109000206800F027FB2168886840F077008860AE
:1010A0001DE0CB68D1E90121206800F01BFB20681E
:1010B000816841F48041816011E01EE0CA6849689E
:1010C000206800F021FB5021206806E0CA684968CA
:1010D000206800F02AFB6021206800F00DFB84F8F6
:1010E0003950002084F8380070BDCA68496820680B
:1010F00000F00AFB40212068EFE700212068ECE7C0
:1011000010212068E9E720212068E6E730212068E7
:10111000E3E7704770B50446006801694FF00005C9
:10112000C943890715D4C168C943890711D4E91E89
:10113000016101202076206880698007204602D066
:10114000FFF7E7FF04E000F098F8204600F096F87B
:10115000257620680169C943490717D4C168C94386
:10116000490713D46FF00401016102202076206842
:10117000806910F4407F204602D0FFF7CAFF04E0E8
:1011800000F07BF8204600F079F8257620680169A8
:10119000C943090716D4C168C943090712D46FF0BF
:1011A00008010161042020762068C069800720467C
:1011B00002D0FFF7AEFF04E000F05FF8204600F039
:1011C0005DF8257620680169C943C90617D4C1684E
:1011D000C943C90613D46FF01001016108202076BD
:1011E0002068C06910F4407F204602D0FFF791FFCD
:1011F00004E000F042F8204600F040F82576206830
:101200000169C943C90708D1C168C943C90704D1E5
:10121000891E0161204600F032F820680169C94347
:10122000090609D4C168C943090605D46FF08001D5
:1012300001612046FFF786FE20680169C94349061F
:1012400009D4C168C943490605D46FF04001016162
:10125000204600F015F820680169C94389060BD4BF
:10126000C168C943890607D46FF020010161204697
:10127000BDE87040FFF767BE70BD704770477047AC
:10128000704770B5040004D094F83900002510B1FF
:1012900006E0012070BD84F83850204600F020F8A8
:1012A000022084F839002068C16821F40051C1602F
:1012B000204600F04DFA2068016921F49041016157
:1012C0002068416921F02A0141612068C16841F428
:1012D0000051C160E563012084F83900002070BD31
:1012E00010B50068114986B088421DD11048816947
:1012F00041F48041816180690E4C00F4804004908B
:101300004FF4007000900220019003200390694682
:101310002046FEF7CFFF00212015CDE90001029104
:1013200069462046FEF7C6FF06B010BD00380140F2
:1013300000100240000801402DE9F047044690F8F3
:10134000390099460D46012801D0222858D12DB3E5
:1013500022B394F83800012852D0012684F838606E
:101360000027E76394F8390022281AD05FF01200B2
:1013700084F83900A284E2844FF48058E08C4B4614
:10138000401EE084A0684FF0000240454FF080010D
:10139000204613D100F094FA08BB04E00120BDE818
:1013A000F0873220E4E728882168C0F3080048600D
:1013B000206908B16D1C08E0AD1C06E000F080FA61
:1013C00068B9216815F8010B4860E08C0028D5D178
:1013D0004B4600224021204600F072FA08B103205B
:1013E000DDE794F83900322806D084F8396000BF70
:1013F00084F838700020D2E7222084F83900F7E71B
:101400000220CCE7FEE700002DE9F041234886B03A
:10141000816941F020018161816901F0200104911D
:10142000816941F004018161816901F00401049145
:10143000816941F0080181618069194F00F008005D
:1014400040F21F140490002221463846FFF710F89E
:10145000DFF850804FF4E066002231464046FFF747
:1014600007F8009401240225694638460395019443
:10147000FEF720FF0F2000900020019002906946A7
:101480004046FEF717FFCDE90064694640460395E4
:10149000FEF710FF06B0BDE8F0810000001002402A
:1014A00000080140000C01400B4810B509490160DB
:1014B0000A49416000214FF480428160C0E9031273
:1014C00041618161C1610162FEF7DEFF002800D049
:1014D000FEE710BD0054004014000020A08601006B
:1014E00010B5124886B04FF08041016008210024F9
:1014F000C0E901140921C0E90314FFF74DFD00B153
:10150000FEE74FF48050009069460848FFF788FDD9
:1015100000B1FEE7049404A904480594FFF714FD04
:10152000002800D0FEE706B010BD000050000020EB
:10153000002210210148FEF79BBF00000008014077
:10154000012210210148FEF793BF0000000801406E
:10155000FEE770470907090E002806DA00F00F00C1
:1015600000F1E02080F8141D704700F1E02080F8C1
:10157000001470477047704710B5FFF717F8BDE8C3
:101580001040FFF7DBBC10B590B0022000900120A6
:10159000049010200024059007946846FFF7EEF9A8
:1015A00000B1FEE70F20CDE90A040C940D94002150
:1015B0000AA80E94FFF7A4F800B1FEE7FFF764F95C
:1015C0004FF47A71B0FBF1F0FFF7A4FC0420FFF7B1
:1015D00094FC00221146501EFFF760F810B010BDB9
:1015E0000D48016841F00101016041680B4A11405A
:1015F000416001680A4A11400160016821F48021BC
:101600000160416821F4FE0141604FF41F018160D7
:101610000449C00308607047001002400000FFF852
:10162000FFFFF6FE08ED00E0114910B508686428D8
:1016300001D100200860421C0A600E4909788842E6
:1016400013DC0D48007880B1012808D0022809D0A9
:10165000FEF7E2FDBDE810400848FFF75BBDFEF76E
:10166000C3FDF7E7FEF7A8FDF4E7FEF7E7FDF1E7B6
:10167000000000200800002007000020500000208B
:10168000F0B50268144B154C154D4FF08047984249
:1016900005D0B84203D0A04201D0A84203D122F025
:1016A00070064A683243984205D0B84203D0A0423F
:1016B00001D0A84203D122F44074CA6822430260D8
:1016C0008A68C2620A688262984201D1096901632C
:1016D00001214161F0BD0000002C014000040040E8
:1016E0000008004010B5846842EA032224F47F44D5
:1016F0000A432243826010BD826822F070020A43CE
:1017000042F007018160704710B5036A046A24F053
:1017100001040462846924F0F00444EA021423F012
:101720000A020A438461026210BD10B5036A23F005
:10173000100303628369046A23F4704343EA0232AC
:1017400024F0A00343EA01118261016210BD000090
:101750002DE9F041044600680169E26821F4405136
:10176000114301612169A068084361690843216848
:10177000CA6841F20C639A430243CA602068416917
:10178000A26921F44071114341614C4920686425EC
:10179000322688423CD1FFF795F800EBC00101EBFF
:1017A000001061688900B0FBF1F7FFF78BF800EBE0
:1017B000C00101EB00106168B0468900B0FBF1F098
:1017C000B0FBF5F06FF01801484307EB800106EB22
:1017D0000110B0FBF5F000F0F006FFF773F800EB36
:1017E000C00101EB001061688900B0FBF1F0B0FBB3
:1017F000F5F006EB0016FFF765F800EBC00101EB12
:10180000001061688900B0FBF1F7FFF75BF83BE07F
:10181000FFF740F800EBC00101EB001061688900A0
:10182000B0FBF1F7FFF736F800EBC00101EB001059
:101830006168B0468900B0FBF1F0B0FBF5F06FF0E5
:101840001801484307EB800106EB0110B0FBF5F0EF
:1018500000F0F006FFF71EF800EBC00101EB0010EE
:1018600061688900B0FBF1F0B0FBF5F006EB001603
:10187000FFF710F800EBC00101EB00106168890070
:10188000B0FBF1F7FFF706F800EBC00101EB001029
:1018900061688900B0FBF1F0B0FBF5F06FF0180162
:1018A000484307EB800108EB0110B0FBF5F021681D
:1018B00000F00F0030448860BDE8F081003801403E
:1018C0002DE9F0471D4690460E460446FEF7D6FD2C
:1018D00007465FEA08004FF000094FF0010808D002
:1018E00030E0681C05D095B1FEF7C8FDC01BA842CA
:1018F0000DD82068006836EA0000F2D127E0681CA5
:1019000020D025B1FEF7BAFDC01BA8421AD9206825
:10191000C16821F08001C1602068C16821F0200108
:10192000C1602068C16821F48071C160206841698C
:1019300021F00101416184F8398084F83890032056
:10194000BDE8F0872068006836EA0000D7D00020A4
:10195000F6E7FEE70FB4084B10B504A902AA0398F6
:1019600000F01CF8044602A9002000F0C1F820464F
:1019700010BC5DF814FB0000F11A000802E008C872
:10198000121F08C1002AFAD170477047002001E0F9
:1019900001C1121F002AFBD1704700002DE9FF4F43
:1019A00089B09B460446002506E025280BD05A4600
:1019B0000B999047641C6D1C20780028F5D10DB060
:1019C0002846BDE8F08F0027B8460122474900E0CD
:1019D000074314F8013F203B02FA03F00842F7D115
:1019E00020782E2819D114F8010F47F004072A286F
:1019F0000ED06FF02F022078A0F1300109290CD809
:101A000008EB880102EB410100EB0108641CF2E7DE
:101A10000A98641C50F8048B0A9020780028CED0D5
:101A2000642808D0692806D075281ED05A460B991C
:101A300090476D1C58E00A994FF00A0901C90A91B4
:101A4000002802DA40422D2102E0390504D52B217D
:101A50008DF82010012103E0F90704D02021F7E7D9
:101A60008A4608AE0DE00021FAE70A994FF00A090C
:101A700001C90A91F7E74946FEF75BFB303106F8EA
:101A8000011D0028F7D1ADEB060000F12009780711
:101A900001D44FF00108C84502DDA8EB090000E0C1
:101AA00000208046002706E008A85A46C05D0B9932
:101AB00090476D1C7F1C5745F6DB04E030205A46EA
:101AC0000B9990476D1CB8F10001A8F10108F5DCF5
:101AD00005E016F8010B5A460B9990476D1CB9F1B9
:101AE0000001A9F10109F4DC641C65E70928010083
:101AF0000A68531C0B601070704700000D494FF4CA
:101B00007A720968B1FBF2F141430B48026842F076
:101B100080720260094800224260026842F00102BD
:101B2000026042688A42FCD3016821F00101016031
:101B30007047000010000020FCED00E0001000E005
:101B40005A2714254FF4FA78FEF738FDFFF71BFDEE
:101B5000FFF75AFCFFF7A8FC6248614900260160C4
:101B60004FF4E131C0E901160C21C660C0E90461FF
:101B70008661C661FFF785FB00B1FEE7FFF7B0FCA9
:101B8000FEF784FB584CB246584EA070012286F8EE
:101B900000A011025648FEF76BFC52483A4655A188
:101BA0004030FFF7D7FE4F484030FEF7EDFA4D4882
:101BB0002A4655A14030FFF7CDFE4A484030FEF797
:101BC000E3FA4848424656A14030FFF7C3FE454875
:101BD0004030FEF7D9FA43483C38FFF715FAB346D0
:101BE000FEF754FBA070C00732D054A0FEF7CCFA29
:101BF000A078400729D556A0FEF7C6FA5C4E012012
:101C000037708BF8000002E02846FFF777FF317845
:101C1000481C30706078801E8142F5DDFEF736FB8F
:101C20004007FBD453A0FEF7AFFA00BFFEF72EFB30
:101C30008007FBD555A0FEF7A7FAFFF781FC58A057
:101C4000FEF7A2FA03208BF80000A078C0073ED16F
:101C5000474EA94656A03570FEF796FAA078800741
:101C600035D50120307084F80190FEF70FFB800716
:101C70002DD554A0FEF788FA59A0FEF785FAFFF794
:101C800057FC02218BF8001002E02846FFF736FFD0
:101C90003078411C31706178891E8842F5DD00BFC3
:101CA000FEF7F4FA8007FBD451A0FEF76DFA404628
:101CB000FFF724FF03268BF8006000BFFEF7E6FA6B
:101CC0004007FBD54FA0FEF75FFA8BF800608BF85A
:101CD00000A0A07820706420FFF710FF80E70000CC
:101CE000003801408C000020040000200700002084
:101CF00000080140466F72776172642073706565F9
:101D0000643A2025640D0A004261636B7761726456
:101D10002073706565643A2025640D0A0000000098
:101D20004261636B776172642073746F70206465C5
:101D30006C61793A2025640D0A00000050726F6AC8
:101D40006563746F72206973205550210D00000087
:101D50004C69667420697320646F776E2C207374ED
:101D6000617274206D6F76696E672055500D0A00A0
:101D700008000020446F776E2073776974636820D1
:101D80006966204F46460D0A00000000557020731A
:101D90007769746368206973204F4E0D0A00000054
:101DA0004D61676E6574206973204F4E0D0A000007
:101DB00050726F6A6563746F7220697320444F5765
:101DC0004E210D004C69667420697320444F574EB4
:101DD0002C206D6F76696E672055500D0A0000004B
:101DE0004D61676E6574206973204F46460D0A0089
:101DF000557020737769746368206973204F464675
:101E00000D0A0000446F776E207377697463682051
:101E10006973204F4E0D0A00000000000000000012
:101E20000102030406070809000000000102030480
:101E3000501E000800000020140000007C1900085B
:101E4000641E000814000020BC0500008C19000866
:101E50000000000000000000000000000000000082
:041E600000A24A048E
:04000005080000ED02
:00000001FF
